{
  "_format": "hh-sol-artifact-1",
  "contractName": "Bank",
  "sourceName": "contracts/w2_1_bank.sol",
  "abi": [
    {
      "inputs": [],
      "stateMutability": "payable",
      "type": "constructor"
    },
    {
      "inputs": [
        {
          "internalType": "uint256",
          "name": "withdrawAmount",
          "type": "uint256"
        }
      ],
      "name": "adminWithdraw",
      "outputs": [
        {
          "internalType": "uint256",
          "name": "remainingBal",
          "type": "uint256"
        }
      ],
      "stateMutability": "nonpayable",
      "type": "function"
    },
    {
      "inputs": [],
      "name": "balance",
      "outputs": [
        {
          "internalType": "uint256",
          "name": "",
          "type": "uint256"
        }
      ],
      "stateMutability": "view",
      "type": "function"
    },
    {
      "inputs": [],
      "name": "deposit",
      "outputs": [
        {
          "internalType": "uint256",
          "name": "",
          "type": "uint256"
        }
      ],
      "stateMutability": "payable",
      "type": "function"
    },
    {
      "inputs": [],
      "name": "depositsBalance",
      "outputs": [
        {
          "internalType": "uint256",
          "name": "",
          "type": "uint256"
        }
      ],
      "stateMutability": "view",
      "type": "function"
    },
    {
      "inputs": [],
      "name": "owner",
      "outputs": [
        {
          "internalType": "address",
          "name": "",
          "type": "address"
        }
      ],
      "stateMutability": "view",
      "type": "function"
    },
    {
      "inputs": [
        {
          "internalType": "uint256",
          "name": "withdrawAmount",
          "type": "uint256"
        }
      ],
      "name": "withdraw",
      "outputs": [
        {
          "internalType": "uint256",
          "name": "remainingBal",
          "type": "uint256"
        }
      ],
      "stateMutability": "nonpayable",
      "type": "function"
    }
  ],
  "bytecode": "0x608060405233600160006101000a81548173ffffffffffffffffffffffffffffffffffffffff021916908373ffffffffffffffffffffffffffffffffffffffff1602179055506106f2806100546000396000f3fe6080604052600436106100555760003560e01c8063138fbe711461005a5780632e1a7d4d146100855780637c5b4a37146100c25780638da5cb5b146100ff578063b69ef8a81461012a578063d0e30db014610155575b600080fd5b34801561006657600080fd5b5061006f610173565b60405161007c919061055b565b60405180910390f35b34801561009157600080fd5b506100ac60048036038101906100a791906104b6565b61017b565b6040516100b9919061055b565b60405180910390f35b3480156100ce57600080fd5b506100e960048036038101906100e491906104b6565b6102ab565b6040516100f6919061055b565b60405180910390f35b34801561010b57600080fd5b5061011461039a565b6040516101219190610520565b60405180910390f35b34801561013657600080fd5b5061013f6103c0565b60405161014c919061055b565b60405180910390f35b61015d610406565b60405161016a919061055b565b60405180910390f35b600047905090565b60008060003373ffffffffffffffffffffffffffffffffffffffff1673ffffffffffffffffffffffffffffffffffffffff16815260200190815260200160002054821161026557816000803373ffffffffffffffffffffffffffffffffffffffff1673ffffffffffffffffffffffffffffffffffffffff168152602001908152602001600020600082825461021091906105dd565b9250508190555060003390508073ffffffffffffffffffffffffffffffffffffffff166108fc849081150290604051600060405180830381858888f19350505050158015610262573d6000803e3d6000fd5b50505b6000803373ffffffffffffffffffffffffffffffffffffffff1673ffffffffffffffffffffffffffffffffffffffff168152602001908152602001600020549050919050565b6000600160009054906101000a900473ffffffffffffffffffffffffffffffffffffffff1673ffffffffffffffffffffffffffffffffffffffff163373ffffffffffffffffffffffffffffffffffffffff161461033d576040517f08c379a00000000000000000000000000000000000000000000000000000000081526004016103349061053b565b60405180910390fd5b4782116103925760003390508073ffffffffffffffffffffffffffffffffffffffff166108fc849081150290604051600060405180830381858888f1935050505015801561038f573d6000803e3d6000fd5b50505b479050919050565b600160009054906101000a900473ffffffffffffffffffffffffffffffffffffffff1681565b60008060003373ffffffffffffffffffffffffffffffffffffffff1673ffffffffffffffffffffffffffffffffffffffff16815260200190815260200160002054905090565b6000346000803373ffffffffffffffffffffffffffffffffffffffff1673ffffffffffffffffffffffffffffffffffffffff16815260200190815260200160002060008282546104569190610587565b925050819055506000803373ffffffffffffffffffffffffffffffffffffffff1673ffffffffffffffffffffffffffffffffffffffff16815260200190815260200160002054905090565b6000813590506104b0816106a5565b92915050565b6000602082840312156104c857600080fd5b60006104d6848285016104a1565b91505092915050565b6104e881610611565b82525050565b60006104fb601183610576565b91506105068261067c565b602082019050919050565b61051a81610643565b82525050565b600060208201905061053560008301846104df565b92915050565b60006020820190508181036000830152610554816104ee565b9050919050565b60006020820190506105706000830184610511565b92915050565b600082825260208201905092915050565b600061059282610643565b915061059d83610643565b9250827fffffffffffffffffffffffffffffffffffffffffffffffffffffffffffffffff038211156105d2576105d161064d565b5b828201905092915050565b60006105e882610643565b91506105f383610643565b9250828210156106065761060561064d565b5b828203905092915050565b600061061c82610623565b9050919050565b600073ffffffffffffffffffffffffffffffffffffffff82169050919050565b6000819050919050565b7f4e487b7100000000000000000000000000000000000000000000000000000000600052601160045260246000fd5b7f796f75206d7573742062652061646d696e000000000000000000000000000000600082015250565b6106ae81610643565b81146106b957600080fd5b5056fea26469706673582212209904316b2b4709215abd9df609bde2d0432efc4b5eaa270b288f1530af71154164736f6c63430008040033",
  "linkReferences": {},
  "deployedLinkReferences": {}
}