{
  "_format": "hh-sol-artifact-1",
  "contractName": "Counter",
  "sourceName": "contracts/w1_2_counter.sol",
  "abi": [
    {
      "inputs": [
        {
          "internalType": "uint256",
          "name": "initcount",
          "type": "uint256"
        }
      ],
      "stateMutability": "nonpayable",
      "type": "constructor"
    },
    {
      "inputs": [
        {
          "internalType": "uint256",
          "name": "x",
          "type": "uint256"
        }
      ],
      "name": "add",
      "outputs": [],
      "stateMutability": "nonpayable",
      "type": "function"
    },
    {
      "inputs": [],
      "name": "count",
      "outputs": [],
      "stateMutability": "nonpayable",
      "type": "function"
    },
    {
      "inputs": [],
      "name": "counter",
      "outputs": [
        {
          "internalType": "uint256",
          "name": "",
          "type": "uint256"
        }
      ],
      "stateMutability": "view",
      "type": "function"
    }
  ],
  "bytecode": "0x608060405234801561001057600080fd5b506040516104c93803806104c983398181016040528101906100329190610054565b806000819055505061009e565b60008151905061004e81610087565b92915050565b60006020828403121561006657600080fd5b60006100748482850161003f565b91505092915050565b6000819050919050565b6100908161007d565b811461009b57600080fd5b50565b61041c806100ad6000396000f3fe608060405234801561001057600080fd5b50600436106100415760003560e01c806306661abd146100465780631003e2d21461005057806361bc221a1461006c575b600080fd5b61004e61008a565b005b61006a600480360381019061006591906101db565b6100e4565b005b6100746100fb565b604051610081919061027c565b60405180910390f35b60008081548092919061009c90610346565b91905055506100e26040518060400160405280601281526020017f6375727220636f756e74206973205b25645d0000000000000000000000000000815250600054610101565b565b806000546100f291906102b3565b60008190555050565b60005481565b610199828260405160240161011792919061024c565b6040516020818303038152906040527f9710a9d0000000000000000000000000000000000000000000000000000000007bffffffffffffffffffffffffffffffffffffffffffffffffffffffff19166020820180517bffffffffffffffffffffffffffffffffffffffffffffffffffffffff838183161783525050505061019d565b5050565b60008151905060006a636f6e736f6c652e6c6f679050602083016000808483855afa5050505050565b6000813590506101d5816103cf565b92915050565b6000602082840312156101ed57600080fd5b60006101fb848285016101c6565b91505092915050565b600061020f82610297565b61021981856102a2565b9350610229818560208601610313565b610232816103be565b840191505092915050565b61024681610309565b82525050565b600060408201905081810360008301526102668185610204565b9050610275602083018461023d565b9392505050565b6000602082019050610291600083018461023d565b92915050565b600081519050919050565b600082825260208201905092915050565b60006102be82610309565b91506102c983610309565b9250827fffffffffffffffffffffffffffffffffffffffffffffffffffffffffffffffff038211156102fe576102fd61038f565b5b828201905092915050565b6000819050919050565b60005b83811015610331578082015181840152602081019050610316565b83811115610340576000848401525b50505050565b600061035182610309565b91507fffffffffffffffffffffffffffffffffffffffffffffffffffffffffffffffff8214156103845761038361038f565b5b600182019050919050565b7f4e487b7100000000000000000000000000000000000000000000000000000000600052601160045260246000fd5b6000601f19601f8301169050919050565b6103d881610309565b81146103e357600080fd5b5056fea26469706673582212209778e014ec17f9c71b88705887c4a7e9f40a7958080f7138d70b67b029cab57864736f6c63430008040033",
  "linkReferences": {},
  "deployedLinkReferences": {}
}