{
  "_format": "hh-sol-artifact-1",
  "contractName": "ScoreList",
  "sourceName": "contracts/w2_2_ScoreList.sol",
  "abi": [
    {
      "inputs": [],
      "stateMutability": "nonpayable",
      "type": "constructor"
    },
    {
      "anonymous": false,
      "inputs": [
        {
          "indexed": false,
          "internalType": "string",
          "name": "_studentFirstName",
          "type": "string"
        },
        {
          "indexed": false,
          "internalType": "string",
          "name": "_studentLastName",
          "type": "string"
        },
        {
          "indexed": false,
          "internalType": "uint256",
          "name": "_studentId",
          "type": "uint256"
        }
      ],
      "name": "studentAdded",
      "type": "event"
    },
    {
      "anonymous": false,
      "inputs": [
        {
          "indexed": false,
          "internalType": "uint256",
          "name": "_studentId",
          "type": "uint256"
        },
        {
          "indexed": false,
          "internalType": "uint256",
          "name": "_englishMarks",
          "type": "uint256"
        },
        {
          "indexed": false,
          "internalType": "uint256",
          "name": "_mathsMarks",
          "type": "uint256"
        },
        {
          "indexed": false,
          "internalType": "uint256",
          "name": "_sciencemarks",
          "type": "uint256"
        }
      ],
      "name": "studentScoresRecorded",
      "type": "event"
    },
    {
      "inputs": [
        {
          "internalType": "string",
          "name": "_studentFirstName",
          "type": "string"
        },
        {
          "internalType": "string",
          "name": "_studentLastName",
          "type": "string"
        }
      ],
      "name": "addStudentDetails",
      "outputs": [],
      "stateMutability": "nonpayable",
      "type": "function"
    },
    {
      "inputs": [
        {
          "internalType": "uint256",
          "name": "_studentId",
          "type": "uint256"
        },
        {
          "internalType": "uint256",
          "name": "_englishMarks",
          "type": "uint256"
        },
        {
          "internalType": "uint256",
          "name": "_mathsMarks",
          "type": "uint256"
        },
        {
          "internalType": "uint256",
          "name": "_sciencemarks",
          "type": "uint256"
        }
      ],
      "name": "addStudentScores",
      "outputs": [],
      "stateMutability": "nonpayable",
      "type": "function"
    },
    {
      "inputs": [],
      "name": "classTeacher",
      "outputs": [
        {
          "internalType": "address",
          "name": "",
          "type": "address"
        }
      ],
      "stateMutability": "view",
      "type": "function"
    }
  ],
  "bytecode": "0x60806040526000805534801561001457600080fd5b5033600160006101000a81548173ffffffffffffffffffffffffffffffffffffffff021916908373ffffffffffffffffffffffffffffffffffffffff160217905550610917806100656000396000f3fe608060405234801561001057600080fd5b50600436106100415760003560e01c80634c94ebbb14610046578063a24232c514610062578063be645d0a1461007e575b600080fd5b610060600480360381019061005b919061049f565b61009c565b005b61007c60048036038101906100779190610433565b6101ad565b005b6100866102ed565b604051610093919061057c565b60405180910390f35b338073ffffffffffffffffffffffffffffffffffffffff16600160009054906101000a900473ffffffffffffffffffffffffffffffffffffffff1673ffffffffffffffffffffffffffffffffffffffff161461012d576040517f08c379a0000000000000000000000000000000000000000000000000000000008152600401610124906105dc565b60405180910390fd5b60006003600087815260200190815260200160002090508481600101819055508381600201819055508281600301819055508581600001819055507ff37378b436df9c133c295a383bc635d84430a23d7801ffa2dbfd18f9e191156a8686868660405161019d94939291906105fc565b60405180910390a1505050505050565b338073ffffffffffffffffffffffffffffffffffffffff16600160009054906101000a900473ffffffffffffffffffffffffffffffffffffffff1673ffffffffffffffffffffffffffffffffffffffff161461023e576040517f08c379a0000000000000000000000000000000000000000000000000000000008152600401610235906105dc565b60405180910390fd5b6000600260008054815260200190815260200160002090508381600001908051906020019061026e929190610313565b5082816001019080519060200190610287929190610313565b5060005481600201819055507faee3b08f60bd17d98cf5318d54d8104d3f63cd7878cb5ee81a3ab7d3c8ef1d3d84846000546040516102c893929190610597565b60405180910390a16000808154809291906102e290610794565b919050555050505050565b600160009054906101000a900473ffffffffffffffffffffffffffffffffffffffff1681565b82805461031f90610731565b90600052602060002090601f0160209004810192826103415760008555610388565b82601f1061035a57805160ff1916838001178555610388565b82800160010185558215610388579182015b8281111561038757825182559160200191906001019061036c565b5b5090506103959190610399565b5090565b5b808211156103b257600081600090555060010161039a565b5090565b60006103c96103c484610666565b610641565b9050828152602081018484840111156103e157600080fd5b6103ec8482856106ef565b509392505050565b600082601f83011261040557600080fd5b81356104158482602086016103b6565b91505092915050565b60008135905061042d816108ca565b92915050565b6000806040838503121561044657600080fd5b600083013567ffffffffffffffff81111561046057600080fd5b61046c858286016103f4565b925050602083013567ffffffffffffffff81111561048957600080fd5b610495858286016103f4565b9150509250929050565b600080600080608085870312156104b557600080fd5b60006104c38782880161041e565b94505060206104d48782880161041e565b93505060406104e58782880161041e565b92505060606104f68782880161041e565b91505092959194509250565b61050b816106b3565b82525050565b600061051c82610697565b61052681856106a2565b93506105368185602086016106fe565b61053f8161086a565b840191505092915050565b60006105576032836106a2565b91506105628261087b565b604082019050919050565b610576816106e5565b82525050565b60006020820190506105916000830184610502565b92915050565b600060608201905081810360008301526105b18186610511565b905081810360208301526105c58185610511565b90506105d4604083018461056d565b949350505050565b600060208201905081810360008301526105f58161054a565b9050919050565b6000608082019050610611600083018761056d565b61061e602083018661056d565b61062b604083018561056d565b610638606083018461056d565b95945050505050565b600061064b61065c565b90506106578282610763565b919050565b6000604051905090565b600067ffffffffffffffff8211156106815761068061083b565b5b61068a8261086a565b9050602081019050919050565b600081519050919050565b600082825260208201905092915050565b60006106be826106c5565b9050919050565b600073ffffffffffffffffffffffffffffffffffffffff82169050919050565b6000819050919050565b82818337600083830152505050565b60005b8381101561071c578082015181840152602081019050610701565b8381111561072b576000848401525b50505050565b6000600282049050600182168061074957607f821691505b6020821081141561075d5761075c61080c565b5b50919050565b61076c8261086a565b810181811067ffffffffffffffff8211171561078b5761078a61083b565b5b80604052505050565b600061079f826106e5565b91507fffffffffffffffffffffffffffffffffffffffffffffffffffffffffffffffff8214156107d2576107d16107dd565b5b600182019050919050565b7f4e487b7100000000000000000000000000000000000000000000000000000000600052601160045260246000fd5b7f4e487b7100000000000000000000000000000000000000000000000000000000600052602260045260246000fd5b7f4e487b7100000000000000000000000000000000000000000000000000000000600052604160045260246000fd5b6000601f19601f8301169050919050565b7f4f6e6c792074686520636c61737320746561636865722068617320616363657360008201527f7320746f20746869732066756e6374696f6e0000000000000000000000000000602082015250565b6108d3816106e5565b81146108de57600080fd5b5056fea26469706673582212204357cbe6a39f307a130c984352c3dcd915a21de0dda6aca18d2e13cde1662ca464736f6c63430008040033",
  "linkReferences": {},
  "deployedLinkReferences": {}
}